{
	"data": {
		"bytecode": {
			"linkReferences": {},
			"object": "6060604052341561000f57600080fd5b5b6101128061001f6000396000f30060606040526000357c0100000000000000000000000000000000000000000000000000000000900463ffffffff16806374135154146047578063b1ade4db146059575b600080fd5b3415605157600080fd5b6057606b565b005b3415606357600080fd5b6069606e565b005b5b565b3073ffffffffffffffffffffffffffffffffffffffff1663741351546040518163ffffffff167c0100000000000000000000000000000000000000000000000000000000028152600401600060405180830381600087803b151560d057600080fd5b6102c65a03f1151560e057600080fd5b5050505b5600a165627a7a7230582077d2aaf81f64e8859dcd230d98b3f30e38db5885ec4b18b3d049043cb51193e00029",
			"opcodes": "PUSH1 0x60 PUSH1 0x40 MSTORE CALLVALUE ISZERO PUSH2 0xF JUMPI PUSH1 0x0 DUP1 REVERT JUMPDEST JUMPDEST PUSH2 0x112 DUP1 PUSH2 0x1F PUSH1 0x0 CODECOPY PUSH1 0x0 RETURN STOP PUSH1 0x60 PUSH1 0x40 MSTORE PUSH1 0x0 CALLDATALOAD PUSH29 0x100000000000000000000000000000000000000000000000000000000 SWAP1 DIV PUSH4 0xFFFFFFFF AND DUP1 PUSH4 0x74135154 EQ PUSH1 0x47 JUMPI DUP1 PUSH4 0xB1ADE4DB EQ PUSH1 0x59 JUMPI JUMPDEST PUSH1 0x0 DUP1 REVERT JUMPDEST CALLVALUE ISZERO PUSH1 0x51 JUMPI PUSH1 0x0 DUP1 REVERT JUMPDEST PUSH1 0x57 PUSH1 0x6B JUMP JUMPDEST STOP JUMPDEST CALLVALUE ISZERO PUSH1 0x63 JUMPI PUSH1 0x0 DUP1 REVERT JUMPDEST PUSH1 0x69 PUSH1 0x6E JUMP JUMPDEST STOP JUMPDEST JUMPDEST JUMP JUMPDEST ADDRESS PUSH20 0xFFFFFFFFFFFFFFFFFFFFFFFFFFFFFFFFFFFFFFFF AND PUSH4 0x74135154 PUSH1 0x40 MLOAD DUP2 PUSH4 0xFFFFFFFF AND PUSH29 0x100000000000000000000000000000000000000000000000000000000 MUL DUP2 MSTORE PUSH1 0x4 ADD PUSH1 0x0 PUSH1 0x40 MLOAD DUP1 DUP4 SUB DUP2 PUSH1 0x0 DUP8 DUP1 EXTCODESIZE ISZERO ISZERO PUSH1 0xD0 JUMPI PUSH1 0x0 DUP1 REVERT JUMPDEST PUSH2 0x2C6 GAS SUB CALL ISZERO ISZERO PUSH1 0xE0 JUMPI PUSH1 0x0 DUP1 REVERT JUMPDEST POP POP POP JUMPDEST JUMP STOP LOG1 PUSH6 0x627A7A723058 KECCAK256 PUSH24 0xD2AAF81F64E8859DCD230D98B3F30E38DB5885EC4B18B3D0 0x49 DIV EXTCODECOPY 0xb5 GT SWAP4 0xe0 STOP 0x29 "
		},
		"gasEstimates": {
			"creation": {
				"codeDepositCost": "54800",
				"executionCost": "101",
				"totalCost": "54901"
			},
			"external": {
				"func1()": "108",
				"func2()": "infinite"
			}
		},
		"methodIdentifiers": {
			"func1()": "74135154",
			"func2()": "b1ade4db"
		}
	},
	"abi": [
		{
			"constant": false,
			"inputs": [],
			"name": "func1",
			"outputs": [],
			"payable": false,
			"type": "function",
			"stateMutability": "nonpayable"
		},
		{
			"constant": false,
			"inputs": [],
			"name": "func2",
			"outputs": [],
			"payable": false,
			"type": "function",
			"stateMutability": "nonpayable"
		}
	]
}